{
  "_format": "hh-sol-artifact-1",
  "contractName": "Vote",
  "sourceName": "contracts/voting/vote.sol",
  "abi": [
    {
      "anonymous": false,
      "inputs": [
        {
          "indexed": true,
          "internalType": "uint256",
          "name": "groupId",
          "type": "uint256"
        },
        {
          "indexed": true,
          "internalType": "uint256",
          "name": "identityCommitment",
          "type": "uint256"
        }
      ],
      "name": "JoinRequested",
      "type": "event"
    },
    {
      "anonymous": false,
      "inputs": [
        {
          "indexed": true,
          "internalType": "uint256",
          "name": "groupId",
          "type": "uint256"
        },
        {
          "indexed": true,
          "internalType": "uint256",
          "name": "identityCommitment",
          "type": "uint256"
        }
      ],
      "name": "MemberAdded",
      "type": "event"
    },
    {
      "anonymous": false,
      "inputs": [
        {
          "indexed": true,
          "internalType": "uint256",
          "name": "groupId",
          "type": "uint256"
        },
        {
          "indexed": true,
          "internalType": "uint256",
          "name": "pollId",
          "type": "uint256"
        },
        {
          "indexed": false,
          "internalType": "string[]",
          "name": "voteMsgs",
          "type": "string[]"
        }
      ],
      "name": "PollAdded",
      "type": "event"
    },
    {
      "anonymous": false,
      "inputs": [
        {
          "indexed": true,
          "internalType": "uint256",
          "name": "groupId",
          "type": "uint256"
        },
        {
          "indexed": true,
          "internalType": "uint256",
          "name": "poolId",
          "type": "uint256"
        },
        {
          "indexed": false,
          "internalType": "string",
          "name": "voteMsg",
          "type": "string"
        }
      ],
      "name": "PoolVoteAdded",
      "type": "event"
    },
    {
      "anonymous": false,
      "inputs": [
        {
          "indexed": true,
          "internalType": "uint256",
          "name": "groupId",
          "type": "uint256"
        },
        {
          "indexed": false,
          "internalType": "bytes32",
          "name": "voteMsg",
          "type": "bytes32"
        }
      ],
      "name": "VoteAdded",
      "type": "event"
    },
    {
      "inputs": [
        {
          "internalType": "uint256",
          "name": "merkleTreeDepth",
          "type": "uint256"
        },
        {
          "internalType": "address",
          "name": "admin",
          "type": "address"
        },
        {
          "internalType": "string",
          "name": "name",
          "type": "string"
        },
        {
          "internalType": "string",
          "name": "description",
          "type": "string"
        },
        {
          "internalType": "string",
          "name": "privacy",
          "type": "string"
        },
        {
          "internalType": "string",
          "name": "icon",
          "type": "string"
        }
      ],
      "name": "CreateGroupExtra",
      "outputs": [
        {
          "internalType": "uint256",
          "name": "groupId",
          "type": "uint256"
        }
      ],
      "stateMutability": "nonpayable",
      "type": "function"
    },
    {
      "inputs": [
        {
          "internalType": "uint256",
          "name": "merkleTreeDepth",
          "type": "uint256"
        },
        {
          "internalType": "address",
          "name": "admin",
          "type": "address"
        },
        {
          "internalType": "string",
          "name": "name",
          "type": "string"
        },
        {
          "internalType": "string",
          "name": "description",
          "type": "string"
        },
        {
          "internalType": "enum Vote.PRIVACY",
          "name": "privacy",
          "type": "uint8"
        },
        {
          "internalType": "string",
          "name": "icon",
          "type": "string"
        },
        {
          "internalType": "address",
          "name": "asset",
          "type": "address"
        }
      ],
      "name": "CreateGroupWithAssetDemand",
      "outputs": [
        {
          "internalType": "uint256",
          "name": "groupId",
          "type": "uint256"
        }
      ],
      "stateMutability": "nonpayable",
      "type": "function"
    },
    {
      "inputs": [],
      "name": "GROUP_ID",
      "outputs": [
        {
          "internalType": "uint256",
          "name": "",
          "type": "uint256"
        }
      ],
      "stateMutability": "view",
      "type": "function"
    },
    {
      "inputs": [
        {
          "internalType": "uint256",
          "name": "groupId",
          "type": "uint256"
        },
        {
          "internalType": "uint256",
          "name": "identityCommitment",
          "type": "uint256"
        }
      ],
      "name": "JoinRequest",
      "outputs": [],
      "stateMutability": "nonpayable",
      "type": "function"
    },
    {
      "inputs": [
        {
          "internalType": "uint256",
          "name": "groupId",
          "type": "uint256"
        },
        {
          "internalType": "uint256",
          "name": "identityCommitment",
          "type": "uint256"
        }
      ],
      "name": "addMember",
      "outputs": [],
      "stateMutability": "nonpayable",
      "type": "function"
    },
    {
      "inputs": [
        {
          "internalType": "uint256",
          "name": "",
          "type": "uint256"
        }
      ],
      "name": "admins",
      "outputs": [
        {
          "internalType": "address",
          "name": "",
          "type": "address"
        }
      ],
      "stateMutability": "view",
      "type": "function"
    },
    {
      "inputs": [
        {
          "internalType": "uint256",
          "name": "groupId",
          "type": "uint256"
        }
      ],
      "name": "checkPrivacy",
      "outputs": [],
      "stateMutability": "nonpayable",
      "type": "function"
    },
    {
      "inputs": [
        {
          "internalType": "uint256",
          "name": "merkleTreeDepth",
          "type": "uint256"
        },
        {
          "internalType": "address",
          "name": "admin",
          "type": "address"
        }
      ],
      "name": "createGroup",
      "outputs": [
        {
          "internalType": "uint256",
          "name": "",
          "type": "uint256"
        }
      ],
      "stateMutability": "nonpayable",
      "type": "function"
    },
    {
      "inputs": [
        {
          "internalType": "uint256",
          "name": "groupId",
          "type": "uint256"
        },
        {
          "internalType": "string[]",
          "name": "voteMsgs",
          "type": "string[]"
        }
      ],
      "name": "createPollInGroup",
      "outputs": [
        {
          "internalType": "uint256",
          "name": "pollId",
          "type": "uint256"
        }
      ],
      "stateMutability": "nonpayable",
      "type": "function"
    },
    {
      "inputs": [],
      "name": "group",
      "outputs": [
        {
          "internalType": "contract IGroup",
          "name": "",
          "type": "address"
        }
      ],
      "stateMutability": "view",
      "type": "function"
    },
    {
      "inputs": [
        {
          "internalType": "uint256",
          "name": "",
          "type": "uint256"
        }
      ],
      "name": "groupDesc",
      "outputs": [
        {
          "internalType": "string",
          "name": "",
          "type": "string"
        }
      ],
      "stateMutability": "view",
      "type": "function"
    },
    {
      "inputs": [
        {
          "internalType": "uint256",
          "name": "",
          "type": "uint256"
        }
      ],
      "name": "groupIcon",
      "outputs": [
        {
          "internalType": "string",
          "name": "",
          "type": "string"
        }
      ],
      "stateMutability": "view",
      "type": "function"
    },
    {
      "inputs": [
        {
          "internalType": "uint256",
          "name": "",
          "type": "uint256"
        }
      ],
      "name": "groupName",
      "outputs": [
        {
          "internalType": "string",
          "name": "",
          "type": "string"
        }
      ],
      "stateMutability": "view",
      "type": "function"
    },
    {
      "inputs": [
        {
          "internalType": "uint256",
          "name": "",
          "type": "uint256"
        }
      ],
      "name": "groupPollNum",
      "outputs": [
        {
          "internalType": "uint256",
          "name": "",
          "type": "uint256"
        }
      ],
      "stateMutability": "view",
      "type": "function"
    },
    {
      "inputs": [
        {
          "internalType": "uint256",
          "name": "",
          "type": "uint256"
        },
        {
          "internalType": "uint256",
          "name": "",
          "type": "uint256"
        }
      ],
      "name": "groupPolls",
      "outputs": [
        {
          "internalType": "uint256",
          "name": "group_id",
          "type": "uint256"
        },
        {
          "internalType": "uint256",
          "name": "id",
          "type": "uint256"
        },
        {
          "internalType": "enum PollState",
          "name": "state",
          "type": "uint8"
        }
      ],
      "stateMutability": "view",
      "type": "function"
    },
    {
      "inputs": [
        {
          "internalType": "uint256",
          "name": "",
          "type": "uint256"
        }
      ],
      "name": "groupPrivacy",
      "outputs": [
        {
          "internalType": "string",
          "name": "",
          "type": "string"
        }
      ],
      "stateMutability": "view",
      "type": "function"
    },
    {
      "inputs": [
        {
          "internalType": "uint256",
          "name": "",
          "type": "uint256"
        }
      ],
      "name": "groups",
      "outputs": [
        {
          "internalType": "uint256",
          "name": "id",
          "type": "uint256"
        },
        {
          "internalType": "string",
          "name": "name",
          "type": "string"
        },
        {
          "internalType": "string",
          "name": "desc",
          "type": "string"
        },
        {
          "internalType": "string",
          "name": "icon",
          "type": "string"
        },
        {
          "internalType": "enum Vote.PRIVACY",
          "name": "privacy",
          "type": "uint8"
        },
        {
          "internalType": "address",
          "name": "asset",
          "type": "address"
        }
      ],
      "stateMutability": "view",
      "type": "function"
    },
    {
      "inputs": [
        {
          "internalType": "uint256",
          "name": "",
          "type": "uint256"
        },
        {
          "internalType": "uint256",
          "name": "",
          "type": "uint256"
        }
      ],
      "name": "idInGroup",
      "outputs": [
        {
          "internalType": "bool",
          "name": "",
          "type": "bool"
        }
      ],
      "stateMutability": "view",
      "type": "function"
    },
    {
      "inputs": [
        {
          "internalType": "contract IGroup",
          "name": "_group",
          "type": "address"
        },
        {
          "internalType": "contract ISignal",
          "name": "_signal",
          "type": "address"
        }
      ],
      "name": "initialize",
      "outputs": [],
      "stateMutability": "nonpayable",
      "type": "function"
    },
    {
      "inputs": [
        {
          "internalType": "uint256",
          "name": "",
          "type": "uint256"
        },
        {
          "internalType": "uint256",
          "name": "",
          "type": "uint256"
        },
        {
          "internalType": "string",
          "name": "",
          "type": "string"
        }
      ],
      "name": "pollVoteStat",
      "outputs": [
        {
          "internalType": "uint256",
          "name": "",
          "type": "uint256"
        }
      ],
      "stateMutability": "view",
      "type": "function"
    },
    {
      "inputs": [],
      "name": "signal",
      "outputs": [
        {
          "internalType": "contract ISignal",
          "name": "",
          "type": "address"
        }
      ],
      "stateMutability": "view",
      "type": "function"
    },
    {
      "inputs": [
        {
          "internalType": "string",
          "name": "source",
          "type": "string"
        }
      ],
      "name": "stringToBytes32",
      "outputs": [
        {
          "internalType": "bytes32",
          "name": "result",
          "type": "bytes32"
        }
      ],
      "stateMutability": "pure",
      "type": "function"
    },
    {
      "inputs": [
        {
          "internalType": "uint256",
          "name": "rc",
          "type": "uint256"
        },
        {
          "internalType": "uint256",
          "name": "groupId",
          "type": "uint256"
        },
        {
          "internalType": "uint256[8]",
          "name": "group_proof",
          "type": "uint256[8]"
        },
        {
          "internalType": "bytes32",
          "name": "voteMsg",
          "type": "bytes32"
        },
        {
          "internalType": "uint256",
          "name": "nullifierHash",
          "type": "uint256"
        },
        {
          "internalType": "uint256",
          "name": "externalNullifier",
          "type": "uint256"
        },
        {
          "internalType": "uint256[8]",
          "name": "signal_proof",
          "type": "uint256[8]"
        }
      ],
      "name": "vote",
      "outputs": [],
      "stateMutability": "nonpayable",
      "type": "function"
    },
    {
      "inputs": [
        {
          "internalType": "uint256",
          "name": "rc",
          "type": "uint256"
        },
        {
          "internalType": "uint256",
          "name": "groupId",
          "type": "uint256"
        },
        {
          "internalType": "uint256[8]",
          "name": "group_proof",
          "type": "uint256[8]"
        },
        {
          "internalType": "uint256",
          "name": "pollId",
          "type": "uint256"
        },
        {
          "internalType": "string",
          "name": "voteMsg",
          "type": "string"
        },
        {
          "internalType": "uint256",
          "name": "nullifierHash",
          "type": "uint256"
        },
        {
          "internalType": "uint256",
          "name": "externalNullifier",
          "type": "uint256"
        },
        {
          "internalType": "uint256[8]",
          "name": "signal_proof",
          "type": "uint256[8]"
        }
      ],
      "name": "votePollInGroup",
      "outputs": [],
      "stateMutability": "nonpayable",
      "type": "function"
    },
    {
      "inputs": [
        {
          "internalType": "uint256",
          "name": "",
          "type": "uint256"
        },
        {
          "internalType": "bytes32",
          "name": "",
          "type": "bytes32"
        }
      ],
      "name": "voteStat",
      "outputs": [
        {
          "internalType": "uint256",
          "name": "",
          "type": "uint256"
        }
      ],
      "stateMutability": "view",
      "type": "function"
    }
  ],
  "bytecode": "0x608060405234801561001057600080fd5b50613110806100206000396000f3fe608060405234801561001057600080fd5b50600436106101735760003560e01c80638e52dd69116100de578063c4a941dc11610097578063cdd08ed311610071578063cdd08ed3146104d5578063cfb51928146104f1578063d643faac14610521578063eb0db1301461055157610173565b8063c4a941dc14610459578063c8b88cfb14610489578063c96e71fb146104a557610173565b80638e52dd691461034857806396324bd414610378578063a31a6567146103ad578063bdf4021b146103dd578063be1e386c146103f9578063c496c4ed1461042957610173565b8063485cc95511610130578063485cc9551461025e5780634dd9c0b51461027a578063640d090b146102985780636a1c16ec146102b65780637cdac869146102e85780638bf63c741461031857610173565b8063134d63a21461017857806314a9c807146101a857806314bfd6d0146101c457806314f41374146101f45780631783efc31461022457806329e7ef2d14610240575b600080fd5b610192600480360381019061018d9190611f5e565b610581565b60405161019f919061280f565b60405180910390f35b6101c260048036038101906101bd919061234e565b610621565b005b6101de60048036038101906101d99190611f5e565b61071a565b6040516101eb9190612740565b60405180910390f35b61020e60048036038101906102099190611f5e565b61074d565b60405161021b91906128f1565b60405180910390f35b61023e6004803603810190610239919061226f565b610765565b005b6102486108dc565b60405161025591906127b5565b60405180910390f35b61027860048036038101906102739190611ee1565b610900565b005b610282610995565b60405161028f91906128f1565b60405180910390f35b6102a061099b565b6040516102ad91906127d0565b60405180910390f35b6102d060048036038101906102cb919061226f565b6109c1565b6040516102df93929190612a6e565b60405180910390f35b61030260048036038101906102fd9190612233565b610a05565b60405161030f91906128f1565b60405180910390f35b610332600480360381019061032d919061226f565b610a2a565b60405161033f919061277f565b60405180910390f35b610362600480360381019061035d9190612421565b610a59565b60405161036f91906128f1565b60405180910390f35b610392600480360381019061038d9190611f5e565b610aa1565b6040516103a496959493929190612960565b60405180910390f35b6103c760048036038101906103c29190611f5e565b610ca2565b6040516103d4919061280f565b60405180910390f35b6103f760048036038101906103f291906122ab565b610d42565b005b610413600480360381019061040e9190611f5e565b610fa1565b604051610420919061280f565b60405180910390f35b610443600480360381019061043e91906120df565b611041565b60405161045091906128f1565b60405180910390f35b610473600480360381019061046e91906121db565b6110e9565b60405161048091906128f1565b60405180910390f35b6104a3600480360381019061049e9190611f5e565b61145a565b005b6104bf60048036038101906104ba9190611fb0565b611601565b6040516104cc91906128f1565b60405180910390f35b6104ef60048036038101906104ea919061226f565b611706565b005b61050b60048036038101906105069190611f1d565b611738565b604051610518919061279a565b60405180910390f35b61053b60048036038101906105369190611fec565b611762565b60405161054891906128f1565b60405180910390f35b61056b60048036038101906105669190611f5e565b6119d9565b604051610578919061280f565b60405180910390f35b600760205280600052604060002060009150905080546105a090612da9565b80601f01602080910402602001604051908101604052809291908181526020018280546105cc90612da9565b80156106195780601f106105ee57610100808354040283529160200191610619565b820191906000526020600020905b8154815290600101906020018083116105fc57829003601f168201915b505050505081565b61067c89898961067489898080601f016020809104026020016040519081016040528093929190818152602001838380828437600081840152601f19601f82011690508083019250505050505050611738565b878787610d42565b600d6000898152602001908152602001600020600087815260200190815260200160002085856040516106b0929190612727565b908152602001604051809103902060008154809291906106cf90612e0c565b919050555085887fa785f00daff380596c63910b315b519bb13df90ed6743b7ed0c312cafb36b9f087876040516107079291906127eb565b60405180910390a3505050505050505050565b60056020528060005260406000206000915054906101000a900473ffffffffffffffffffffffffffffffffffffffff1681565b600c6020528060005260406000206000915090505481565b60046000838152602001908152602001600020600082815260200190815260200160002060009054906101000a900460ff16156107d7576040517f08c379a00000000000000000000000000000000000000000000000000000000081526004016107ce90612831565b60405180910390fd5b6107e08261145a565b60008054906101000a900473ffffffffffffffffffffffffffffffffffffffff1673ffffffffffffffffffffffffffffffffffffffff16631783efc383836040518363ffffffff1660e01b815260040161083b9291906129d6565b600060405180830381600087803b15801561085557600080fd5b505af1158015610869573d6000803e3d6000fd5b50505050600160046000848152602001908152602001600020600083815260200190815260200160002060006101000a81548160ff02191690831515021790555080827fa7971101f3ab1808fedaf53dcda952637961dcc1153334a243c3426fc83c859460405160405180910390a35050565b60008054906101000a900473ffffffffffffffffffffffffffffffffffffffff1681565b610908611a79565b816000806101000a81548173ffffffffffffffffffffffffffffffffffffffff021916908373ffffffffffffffffffffffffffffffffffffffff16021790555080600160006101000a81548173ffffffffffffffffffffffffffffffffffffffff021916908373ffffffffffffffffffffffffffffffffffffffff16021790555060006003819055505050565b60035481565b600160009054906101000a900473ffffffffffffffffffffffffffffffffffffffff1681565b600b602052816000526040600020602052806000526040600020600091509150508060000154908060010154908060030160009054906101000a900460ff16905083565b6002602052816000526040600020602052806000526040600020600091509150505481565b60046020528160005260406000206020528060005260406000206000915091509054906101000a900460ff1681565b600d6020528260005260406000206020528160005260406000208180516020810182018051848252602083016020850120818352809550505050505060009250925050505481565b600a602052806000526040600020600091509050806000015490806001018054610aca90612da9565b80601f0160208091040260200160405190810160405280929190818152602001828054610af690612da9565b8015610b435780601f10610b1857610100808354040283529160200191610b43565b820191906000526020600020905b815481529060010190602001808311610b2657829003601f168201915b505050505090806002018054610b5890612da9565b80601f0160208091040260200160405190810160405280929190818152602001828054610b8490612da9565b8015610bd15780601f10610ba657610100808354040283529160200191610bd1565b820191906000526020600020905b815481529060010190602001808311610bb457829003601f168201915b505050505090806003018054610be690612da9565b80601f0160208091040260200160405190810160405280929190818152602001828054610c1290612da9565b8015610c5f5780601f10610c3457610100808354040283529160200191610c5f565b820191906000526020600020905b815481529060010190602001808311610c4257829003601f168201915b5050505050908060040160009054906101000a900460ff16908060040160019054906101000a900473ffffffffffffffffffffffffffffffffffffffff16905086565b60086020528060005260406000206000915090508054610cc190612da9565b80601f0160208091040260200160405190810160405280929190818152602001828054610ced90612da9565b8015610d3a5780601f10610d0f57610100808354040283529160200191610d3a565b820191906000526020600020905b815481529060010190602001808311610d1d57829003601f168201915b505050505081565b60008054906101000a900473ffffffffffffffffffffffffffffffffffffffff1673ffffffffffffffffffffffffffffffffffffffff1663f452ffa28888886040518463ffffffff1660e01b8152600401610d9f93929190612a36565b602060405180830381600087803b158015610db957600080fd5b505af1158015610dcd573d6000803e3d6000fd5b505050506040513d601f19601f82011682018060405250810190610df19190611eb8565b610e30576040517f08c379a0000000000000000000000000000000000000000000000000000000008152600401610e2790612851565b60405180910390fd5b600160009054906101000a900473ffffffffffffffffffffffffffffffffffffffff1673ffffffffffffffffffffffffffffffffffffffff166346cf37b688868686866040518663ffffffff1660e01b8152600401610e9395949392919061290c565b602060405180830381600087803b158015610ead57600080fd5b505af1158015610ec1573d6000803e3d6000fd5b505050506040513d601f19601f82011682018060405250810190610ee59190611eb8565b610f24576040517f08c379a0000000000000000000000000000000000000000000000000000000008152600401610f1b906128d1565b60405180910390fd5b857f9259c591af3680137739dc2b275c388eb1639a143b49022e7062fa162f14776d85604051610f54919061279a565b60405180910390a260016002600088815260200190815260200160002060008681526020019081526020016000206000828254610f919190612c09565b9250508190555050505050505050565b60096020528060005260406000206000915090508054610fc090612da9565b80601f0160208091040260200160405190810160405280929190818152602001828054610fec90612da9565b80156110395780601f1061100e57610100808354040283529160200191611039565b820191906000526020600020905b81548152906001019060200180831161101c57829003601f168201915b505050505081565b600061104d8b8b611601565b90508888600960008481526020019081526020016000209190611071929190611b09565b508686600660008481526020019081526020016000209190611094929190611b09565b5084846008600084815260200190815260200160002091906110b7929190611b09565b5082826007600084815260200190815260200160002091906110da929190611b09565b509a9950505050505050505050565b6000833373ffffffffffffffffffffffffffffffffffffffff166005600083815260200190815260200160002060009054906101000a900473ffffffffffffffffffffffffffffffffffffffff1673ffffffffffffffffffffffffffffffffffffffff161461118d576040517f08c379a000000000000000000000000000000000000000000000000000000000815260040161118490612891565b60405180910390fd5b600c600086815260200190815260200160002060008154809291906111b190612e0c565b91905055915060405180608001604052808681526020018381526020018585905067ffffffffffffffff811115611211577f4e487b7100000000000000000000000000000000000000000000000000000000600052604160045260246000fd5b60405190808252806020026020018201604052801561124457816020015b606081526020019060019003908161122f5790505b50815260200160006002811115611284577f4e487b7100000000000000000000000000000000000000000000000000000000600052602160045260246000fd5b815250600b60008781526020019081526020016000206000848152602001908152602001600020600082015181600001556020820151816001015560408201518160020190805190602001906112db929190611b8f565b5060608201518160030160006101000a81548160ff0219169083600281111561132d577f4e487b7100000000000000000000000000000000000000000000000000000000600052602160045260246000fd5b021790555090505060005b848490508110156114165784848281811061137c577f4e487b7100000000000000000000000000000000000000000000000000000000600052603260045260246000fd5b905060200281019061138e9190612aa5565b600b6000898152602001908152602001600020600086815260200190815260200160002060020183815481106113ed577f4e487b7100000000000000000000000000000000000000000000000000000000600052603260045260246000fd5b906000526020600020019190611404929190611b09565b508061140f90612e0c565b9050611338565b5081857f42b7b6deddc894a670eef396be83dee640e767e45d2b33498f5ae6e0397082a7868660405161144a92919061275b565b60405180910390a3509392505050565b60016002811115611494577f4e487b7100000000000000000000000000000000000000000000000000000000600052602160045260246000fd5b600a600083815260200190815260200160002060040160009054906101000a900460ff1660028111156114f0577f4e487b7100000000000000000000000000000000000000000000000000000000600052602160045260246000fd5b14156115fe576000600a600083815260200190815260200160002060040160019054906101000a900473ffffffffffffffffffffffffffffffffffffffff16905060008173ffffffffffffffffffffffffffffffffffffffff166370a08231336040518263ffffffff1660e01b815260040161156c9190612740565b60206040518083038186803b15801561158457600080fd5b505afa158015611598573d6000803e3d6000fd5b505050506040513d601f19601f820116820180604052508101906115bc9190611f87565b116115fc576040517f08c379a00000000000000000000000000000000000000000000000000000000081526004016115f3906128b1565b60405180910390fd5b505b50565b60008060009054906101000a900473ffffffffffffffffffffffffffffffffffffffff1673ffffffffffffffffffffffffffffffffffffffff16639c11214160036000815461164f90612e0c565b91905081905585306040518463ffffffff1660e01b8152600401611675939291906129ff565b600060405180830381600087803b15801561168f57600080fd5b505af11580156116a3573d6000803e3d6000fd5b505050508160056000600354815260200190815260200160002060006101000a81548173ffffffffffffffffffffffffffffffffffffffff021916908373ffffffffffffffffffffffffffffffffffffffff160217905550600354905092915050565b80827fde2269d339c1bc109f68138c6cfc49c60f864e49a5744459bcce7170c4fb2ad660405160405180910390a35050565b600080829050600081511415611754576000801b91505061175d565b60208301519150505b919050565b600061176e8b8b611601565b90506040518060c001604052808281526020018a8a8080601f016020809104026020016040519081016040528093929190818152602001838380828437600081840152601f19601f82011690508083019250505050505050815260200188888080601f016020809104026020016040519081016040528093929190818152602001838380828437600081840152601f19601f82011690508083019250505050505050815260200185858080601f016020809104026020016040519081016040528093929190818152602001838380828437600081840152601f19601f820116905080830192505050505050508152602001866002811115611898577f4e487b7100000000000000000000000000000000000000000000000000000000600052602160045260246000fd5b81526020018373ffffffffffffffffffffffffffffffffffffffff16815250600a60008381526020019081526020016000206000820151816000015560208201518160010190805190602001906118f0929190611bef565b50604082015181600201908051906020019061190d929190611bef565b50606082015181600301908051906020019061192a929190611bef565b5060808201518160040160006101000a81548160ff0219169083600281111561197c577f4e487b7100000000000000000000000000000000000000000000000000000000600052602160045260246000fd5b021790555060a08201518160040160016101000a81548173ffffffffffffffffffffffffffffffffffffffff021916908373ffffffffffffffffffffffffffffffffffffffff1602179055509050509a9950505050505050505050565b600660205280600052604060002060009150905080546119f890612da9565b80601f0160208091040260200160405190810160405280929190818152602001828054611a2490612da9565b8015611a715780601f10611a4657610100808354040283529160200191611a71565b820191906000526020600020905b815481529060010190602001808311611a5457829003601f168201915b505050505081565b60007f8e94fed44239eb2314ab7a406345e6c5a8f0ccedf3b600de3d004e672c33abf454905060017f8e94fed44239eb2314ab7a406345e6c5a8f0ccedf3b600de3d004e672c33abf45560008114611b06576040517f08c379a0000000000000000000000000000000000000000000000000000000008152600401611afd90612871565b60405180910390fd5b50565b828054611b1590612da9565b90600052602060002090601f016020900481019282611b375760008555611b7e565b82601f10611b5057803560ff1916838001178555611b7e565b82800160010185558215611b7e579182015b82811115611b7d578235825591602001919060010190611b62565b5b509050611b8b9190611c75565b5090565b828054828255906000526020600020908101928215611bde579160200282015b82811115611bdd578251829080519060200190611bcd929190611bef565b5091602001919060010190611baf565b5b509050611beb9190611c92565b5090565b828054611bfb90612da9565b90600052602060002090601f016020900481019282611c1d5760008555611c64565b82601f10611c3657805160ff1916838001178555611c64565b82800160010185558215611c64579182015b82811115611c63578251825591602001919060010190611c48565b5b509050611c719190611c75565b5090565b5b80821115611c8e576000816000905550600101611c76565b5090565b5b80821115611cb25760008181611ca99190611cb6565b50600101611c93565b5090565b508054611cc290612da9565b6000825580601f10611cd45750611cf3565b601f016020900490600052602060002090810190611cf29190611c75565b5b50565b6000611d09611d0484612b21565b612afc565b905082815260208101848484011115611d2157600080fd5b611d2c848285612d67565b509392505050565b600081359050611d4381613040565b92915050565b60008083601f840112611d5b57600080fd5b8235905067ffffffffffffffff811115611d7457600080fd5b602083019150836020820283011115611d8c57600080fd5b9250929050565b600081905082602060080282011115611dab57600080fd5b92915050565b600081519050611dc081613057565b92915050565b600081359050611dd58161306e565b92915050565b600081359050611dea81613085565b92915050565b600081359050611dff8161309c565b92915050565b600081359050611e14816130b3565b92915050565b60008083601f840112611e2c57600080fd5b8235905067ffffffffffffffff811115611e4557600080fd5b602083019150836001820283011115611e5d57600080fd5b9250929050565b600082601f830112611e7557600080fd5b8135611e85848260208601611cf6565b91505092915050565b600081359050611e9d816130c3565b92915050565b600081519050611eb2816130c3565b92915050565b600060208284031215611eca57600080fd5b6000611ed884828501611db1565b91505092915050565b60008060408385031215611ef457600080fd5b6000611f0285828601611ddb565b9250506020611f1385828601611df0565b9150509250929050565b600060208284031215611f2f57600080fd5b600082013567ffffffffffffffff811115611f4957600080fd5b611f5584828501611e64565b91505092915050565b600060208284031215611f7057600080fd5b6000611f7e84828501611e8e565b91505092915050565b600060208284031215611f9957600080fd5b6000611fa784828501611ea3565b91505092915050565b60008060408385031215611fc357600080fd5b6000611fd185828601611e8e565b9250506020611fe285828601611d34565b9150509250929050565b60008060008060008060008060008060e08b8d03121561200b57600080fd5b60006120198d828e01611e8e565b9a5050602061202a8d828e01611d34565b99505060408b013567ffffffffffffffff81111561204757600080fd5b6120538d828e01611e1a565b985098505060608b013567ffffffffffffffff81111561207257600080fd5b61207e8d828e01611e1a565b965096505060806120918d828e01611e05565b94505060a08b013567ffffffffffffffff8111156120ae57600080fd5b6120ba8d828e01611e1a565b935093505060c06120cd8d828e01611d34565b9150509295989b9194979a5092959850565b60008060008060008060008060008060c08b8d0312156120fe57600080fd5b600061210c8d828e01611e8e565b9a5050602061211d8d828e01611d34565b99505060408b013567ffffffffffffffff81111561213a57600080fd5b6121468d828e01611e1a565b985098505060608b013567ffffffffffffffff81111561216557600080fd5b6121718d828e01611e1a565b965096505060808b013567ffffffffffffffff81111561219057600080fd5b61219c8d828e01611e1a565b945094505060a08b013567ffffffffffffffff8111156121bb57600080fd5b6121c78d828e01611e1a565b92509250509295989b9194979a5092959850565b6000806000604084860312156121f057600080fd5b60006121fe86828701611e8e565b935050602084013567ffffffffffffffff81111561221b57600080fd5b61222786828701611d49565b92509250509250925092565b6000806040838503121561224657600080fd5b600061225485828601611e8e565b925050602061226585828601611dc6565b9150509250929050565b6000806040838503121561228257600080fd5b600061229085828601611e8e565b92505060206122a185828601611e8e565b9150509250929050565b60008060008060008060006102a0888a0312156122c757600080fd5b60006122d58a828b01611e8e565b97505060206122e68a828b01611e8e565b96505060406122f78a828b01611d93565b9550506101406123098a828b01611dc6565b94505061016061231b8a828b01611e8e565b93505061018061232d8a828b01611e8e565b9250506101a061233f8a828b01611d93565b91505092959891949750929550565b60008060008060008060008060006102c08a8c03121561236d57600080fd5b600061237b8c828d01611e8e565b995050602061238c8c828d01611e8e565b985050604061239d8c828d01611d93565b9750506101406123af8c828d01611e8e565b9650506101608a013567ffffffffffffffff8111156123cd57600080fd5b6123d98c828d01611e1a565b95509550506101806123ed8c828d01611e8e565b9350506101a06123ff8c828d01611e8e565b9250506101c06124118c828d01611d93565b9150509295985092959850929598565b60008060006060848603121561243657600080fd5b600061244486828701611e8e565b935050602061245586828701611e8e565b925050604084013567ffffffffffffffff81111561247257600080fd5b61247e86828701611e64565b9150509250925092565b600061249584848461258e565b90509392505050565b6124a781612c5f565b82525050565b60006124b98385612b74565b9350836020840285016124cb84612b52565b8060005b878110156125115784840389526124e68284612bb2565b6124f1868284612488565b95506124fc84612b67565b935060208b019a5050506001810190506124cf565b50829750879450505050509392505050565b6125306101008383612d67565b5050565b61253d81612c71565b82525050565b61254c81612c7d565b82525050565b61255b81612cfb565b82525050565b61256a81612d1f565b82525050565b61257981612d43565b82525050565b61258881612d55565b82525050565b600061259a8385612b85565b93506125a7838584612d67565b6125b083612f11565b840190509392505050565b60006125c78385612b96565b93506125d4838584612d67565b6125dd83612f11565b840190509392505050565b60006125f48385612ba7565b9350612601838584612d67565b82840190509392505050565b600061261882612b5c565b6126228185612b96565b9350612632818560208601612d76565b61263b81612f11565b840191505092915050565b6000612653601283612b96565b915061265e82612f22565b602082019050919050565b6000612676600f83612b96565b915061268182612f4b565b602082019050919050565b6000612699600283612b96565b91506126a482612f74565b602082019050919050565b60006126bc600b83612b96565b91506126c782612f9d565b602082019050919050565b60006126df600c83612b96565b91506126ea82612fc6565b602082019050919050565b6000612702600b83612b96565b915061270d82612fef565b602082019050919050565b61272181612cf1565b82525050565b60006127348284866125e8565b91508190509392505050565b6000602082019050612755600083018461249e565b92915050565b600060208201905081810360008301526127768184866124ad565b90509392505050565b60006020820190506127946000830184612534565b92915050565b60006020820190506127af6000830184612543565b92915050565b60006020820190506127ca6000830184612552565b92915050565b60006020820190506127e56000830184612561565b92915050565b600060208201905081810360008301526128068184866125bb565b90509392505050565b60006020820190508181036000830152612829818461260d565b905092915050565b6000602082019050818103600083015261284a81612646565b9050919050565b6000602082019050818103600083015261286a81612669565b9050919050565b6000602082019050818103600083015261288a8161268c565b9050919050565b600060208201905081810360008301526128aa816126af565b9050919050565b600060208201905081810360008301526128ca816126d2565b9050919050565b600060208201905081810360008301526128ea816126f5565b9050919050565b60006020820190506129066000830184612718565b92915050565b6000610180820190506129226000830188612718565b61292f6020830187612543565b61293c6040830186612718565b6129496060830185612718565b6129566080830184612523565b9695505050505050565b600060c0820190506129756000830189612718565b8181036020830152612987818861260d565b9050818103604083015261299b818761260d565b905081810360608301526129af818661260d565b90506129be6080830185612570565b6129cb60a083018461249e565b979650505050505050565b60006040820190506129eb6000830185612718565b6129f86020830184612718565b9392505050565b6000606082019050612a146000830186612718565b612a216020830185612718565b612a2e604083018461249e565b949350505050565b600061014082019050612a4c6000830186612718565b612a596020830185612718565b612a666040830184612523565b949350505050565b6000606082019050612a836000830186612718565b612a906020830185612718565b612a9d604083018461257f565b949350505050565b60008083356001602003843603038112612abe57600080fd5b80840192508235915067ffffffffffffffff821115612adc57600080fd5b602083019250600182023603831315612af457600080fd5b509250929050565b6000612b06612b17565b9050612b128282612ddb565b919050565b6000604051905090565b600067ffffffffffffffff821115612b3c57612b3b612ee2565b5b612b4582612f11565b9050602081019050919050565b6000819050919050565b600081519050919050565b6000602082019050919050565b600082825260208201905092915050565b600082825260208201905092915050565b600082825260208201905092915050565b600081905092915050565b60008083356001602003843603038112612bcb57600080fd5b83810192508235915060208301925067ffffffffffffffff821115612bef57600080fd5b600182023603841315612c0157600080fd5b509250929050565b6000612c1482612cf1565b9150612c1f83612cf1565b9250827fffffffffffffffffffffffffffffffffffffffffffffffffffffffffffffffff03821115612c5457612c53612e55565b5b828201905092915050565b6000612c6a82612cd1565b9050919050565b60008115159050919050565b6000819050919050565b6000612c9282612c5f565b9050919050565b6000612ca482612c5f565b9050919050565b6000819050612cb982613018565b919050565b6000819050612ccc8261302c565b919050565b600073ffffffffffffffffffffffffffffffffffffffff82169050919050565b6000819050919050565b6000612d0682612d0d565b9050919050565b6000612d1882612cd1565b9050919050565b6000612d2a82612d31565b9050919050565b6000612d3c82612cd1565b9050919050565b6000612d4e82612cab565b9050919050565b6000612d6082612cbe565b9050919050565b82818337600083830152505050565b60005b83811015612d94578082015181840152602081019050612d79565b83811115612da3576000848401525b50505050565b60006002820490506001821680612dc157607f821691505b60208210811415612dd557612dd4612eb3565b5b50919050565b612de482612f11565b810181811067ffffffffffffffff82111715612e0357612e02612ee2565b5b80604052505050565b6000612e1782612cf1565b91507fffffffffffffffffffffffffffffffffffffffffffffffffffffffffffffffff821415612e4a57612e49612e55565b5b600182019050919050565b7f4e487b7100000000000000000000000000000000000000000000000000000000600052601160045260246000fd5b7f4e487b7100000000000000000000000000000000000000000000000000000000600052602160045260246000fd5b7f4e487b7100000000000000000000000000000000000000000000000000000000600052602260045260246000fd5b7f4e487b7100000000000000000000000000000000000000000000000000000000600052604160045260246000fd5b6000601f19601f8301169050919050565b7f696420657869737420696e2067726f7570210000000000000000000000000000600082015250565b7f67726f75702070726f6f66206572720000000000000000000000000000000000600082015250565b7f3142000000000000000000000000000000000000000000000000000000000000600082015250565b7f6f6e6c792041646d696e21000000000000000000000000000000000000000000600082015250565b7f6d697373696e67206e6674210000000000000000000000000000000000000000600082015250565b7f7369676e616c206661696c000000000000000000000000000000000000000000600082015250565b6003811061302957613028612e84565b5b50565b6003811061303d5761303c612e84565b5b50565b61304981612c5f565b811461305457600080fd5b50565b61306081612c71565b811461306b57600080fd5b50565b61307781612c7d565b811461308257600080fd5b50565b61308e81612c87565b811461309957600080fd5b50565b6130a581612c99565b81146130b057600080fd5b50565b600381106130c057600080fd5b50565b6130cc81612cf1565b81146130d757600080fd5b5056fea26469706673582212204d9a4446fab0753c567b4c8c3e45db0c9918dd1299d527438a96ed4037af759964736f6c63430008040033",
  "linkReferences": {},
  "deployedLinkReferences": {}
}